{
  "contractName": "VotingFactory",
  "abi": [
    {
      "anonymous": false,
      "inputs": [
        {
          "indexed": false,
          "internalType": "address",
          "name": "votingAddress",
          "type": "address"
        },
        {
          "indexed": false,
          "internalType": "address",
          "name": "admin",
          "type": "address"
        },
        {
          "indexed": false,
          "internalType": "string",
          "name": "title",
          "type": "string"
        }
      ],
      "name": "VotingCreated",
      "type": "event"
    },
    {
      "inputs": [
        {
          "internalType": "address",
          "name": "",
          "type": "address"
        },
        {
          "internalType": "uint256",
          "name": "",
          "type": "uint256"
        }
      ],
      "name": "userVotings",
      "outputs": [
        {
          "internalType": "address",
          "name": "",
          "type": "address"
        }
      ],
      "stateMutability": "view",
      "type": "function"
    },
    {
      "inputs": [
        {
          "internalType": "uint256",
          "name": "",
          "type": "uint256"
        }
      ],
      "name": "votings",
      "outputs": [
        {
          "internalType": "address",
          "name": "",
          "type": "address"
        }
      ],
      "stateMutability": "view",
      "type": "function"
    },
    {
      "inputs": [
        {
          "internalType": "string",
          "name": "_title",
          "type": "string"
        },
        {
          "internalType": "string",
          "name": "_description",
          "type": "string"
        }
      ],
      "name": "createVoting",
      "outputs": [
        {
          "internalType": "address",
          "name": "",
          "type": "address"
        }
      ],
      "stateMutability": "nonpayable",
      "type": "function"
    },
    {
      "inputs": [],
      "name": "getAllVotings",
      "outputs": [
        {
          "internalType": "address[]",
          "name": "",
          "type": "address[]"
        }
      ],
      "stateMutability": "view",
      "type": "function"
    },
    {
      "inputs": [],
      "name": "getVotingsCount",
      "outputs": [
        {
          "internalType": "uint256",
          "name": "",
          "type": "uint256"
        }
      ],
      "stateMutability": "view",
      "type": "function"
    },
    {
      "inputs": [],
      "name": "getMyVotings",
      "outputs": [
        {
          "internalType": "address[]",
          "name": "",
          "type": "address[]"
        }
      ],
      "stateMutability": "view",
      "type": "function"
    }
  ],
  "bytecode": "0x608060405234801561000f575f80fd5b50612daa8061001d5f395ff3fe608060405234801562000010575f80fd5b506004361062000068575f3560e01c806348e72cff146200006c57806385ba4ad1146200008e57806393b2b41314620000c4578063a598d03c14620000fa578063dae7c92c1462000130578063e4c41bb41462000152575b5f80fd5b6200007662000174565b604051620000859190620005e2565b60405180910390f35b620000ac6004803603810190620000a691906200067c565b6200023c565b604051620000bb9190620006d2565b60405180910390f35b620000e26004803603810190620000dc919062000845565b62000285565b604051620000f19190620006d2565b60405180910390f35b620001186004803603810190620001129190620008c8565b62000409565b604051620001279190620006d2565b60405180910390f35b6200013a62000444565b60405162000149919062000909565b60405180910390f35b6200015c6200044f565b6040516200016b9190620005e2565b60405180910390f35b606060015f3373ffffffffffffffffffffffffffffffffffffffff1673ffffffffffffffffffffffffffffffffffffffff1681526020019081526020015f208054806020026020016040519081016040528092919081815260200182805480156200023257602002820191905f5260205f20905b815f9054906101000a900473ffffffffffffffffffffffffffffffffffffffff1673ffffffffffffffffffffffffffffffffffffffff1681526020019060010190808311620001e8575b5050505050905090565b6001602052815f5260405f20818154811062000256575f80fd5b905f5260205f20015f915091509054906101000a900473ffffffffffffffffffffffffffffffffffffffff1681565b5f803384846040516200029890620004db565b620002a693929190620009a8565b604051809103905ff080158015620002c0573d5f803e3d5ffd5b5090505f8190505f81908060018154018082558091505060019003905f5260205f20015f9091909190916101000a81548173ffffffffffffffffffffffffffffffffffffffff021916908373ffffffffffffffffffffffffffffffffffffffff16021790555060015f3373ffffffffffffffffffffffffffffffffffffffff1673ffffffffffffffffffffffffffffffffffffffff1681526020019081526020015f2081908060018154018082558091505060019003905f5260205f20015f9091909190916101000a81548173ffffffffffffffffffffffffffffffffffffffff021916908373ffffffffffffffffffffffffffffffffffffffff1602179055507f844945f17f80515313dea1207660743aa8aadf3fe293352737dda9668086ee7a813387604051620003f693929190620009f1565b60405180910390a1809250505092915050565b5f818154811062000418575f80fd5b905f5260205f20015f915054906101000a900473ffffffffffffffffffffffffffffffffffffffff1681565b5f8080549050905090565b60605f805480602002602001604051908101604052809291908181526020018280548015620004d157602002820191905f5260205f20905b815f9054906101000a900473ffffffffffffffffffffffffffffffffffffffff1673ffffffffffffffffffffffffffffffffffffffff168152602001906001019080831162000487575b5050505050905090565b6123418062000a3483390190565b5f81519050919050565b5f82825260208201905092915050565b5f819050602082019050919050565b5f73ffffffffffffffffffffffffffffffffffffffff82169050919050565b5f6200053d8262000512565b9050919050565b6200054f8162000531565b82525050565b5f62000562838362000544565b60208301905092915050565b5f602082019050919050565b5f6200058682620004e9565b620005928185620004f3565b93506200059f8362000503565b805f5b83811015620005d5578151620005b9888262000555565b9750620005c6836200056e565b925050600181019050620005a2565b5085935050505092915050565b5f6020820190508181035f830152620005fc81846200057a565b905092915050565b5f604051905090565b5f80fd5b5f80fd5b620006208162000531565b81146200062b575f80fd5b50565b5f813590506200063e8162000615565b92915050565b5f819050919050565b620006588162000644565b811462000663575f80fd5b50565b5f8135905062000676816200064d565b92915050565b5f80604083850312156200069557620006946200060d565b5b5f620006a4858286016200062e565b9250506020620006b78582860162000666565b9150509250929050565b620006cc8162000531565b82525050565b5f602082019050620006e75f830184620006c1565b92915050565b5f80fd5b5f80fd5b5f601f19601f8301169050919050565b7f4e487b71000000000000000000000000000000000000000000000000000000005f52604160045260245ffd5b6200073d82620006f5565b810181811067ffffffffffffffff821117156200075f576200075e62000705565b5b80604052505050565b5f6200077362000604565b905062000781828262000732565b919050565b5f67ffffffffffffffff821115620007a357620007a262000705565b5b620007ae82620006f5565b9050602081019050919050565b828183375f83830152505050565b5f620007df620007d98462000786565b62000768565b905082815260208101848484011115620007fe57620007fd620006f1565b5b6200080b848285620007bb565b509392505050565b5f82601f8301126200082a5762000829620006ed565b5b81356200083c848260208601620007c9565b91505092915050565b5f80604083850312156200085e576200085d6200060d565b5b5f83013567ffffffffffffffff8111156200087e576200087d62000611565b5b6200088c8582860162000813565b925050602083013567ffffffffffffffff811115620008b057620008af62000611565b5b620008be8582860162000813565b9150509250929050565b5f60208284031215620008e057620008df6200060d565b5b5f620008ef8482850162000666565b91505092915050565b620009038162000644565b82525050565b5f6020820190506200091e5f830184620008f8565b92915050565b5f81519050919050565b5f82825260208201905092915050565b5f5b838110156200095d57808201518184015260208101905062000940565b5f8484015250505050565b5f620009748262000924565b6200098081856200092e565b9350620009928185602086016200093e565b6200099d81620006f5565b840191505092915050565b5f606082019050620009bd5f830186620006c1565b8181036020830152620009d1818562000968565b90508181036040830152620009e7818462000968565b9050949350505050565b5f60608201905062000a065f830186620006c1565b62000a156020830185620006c1565b818103604083015262000a29818462000968565b905094935050505056fe608060405234801562000010575f80fd5b5060405162002341380380620023418339818101604052810190620000369190620002a9565b825f806101000a81548173ffffffffffffffffffffffffffffffffffffffff021916908373ffffffffffffffffffffffffffffffffffffffff160217905550816001908162000086919062000577565b50806002908162000098919062000577565b50600160045f6101000a81548160ff021916908315150217905550426005819055505050506200065b565b5f604051905090565b5f80fd5b5f80fd5b5f73ffffffffffffffffffffffffffffffffffffffff82169050919050565b5f620000ff82620000d4565b9050919050565b6200011181620000f3565b81146200011c575f80fd5b50565b5f815190506200012f8162000106565b92915050565b5f80fd5b5f80fd5b5f601f19601f8301169050919050565b7f4e487b71000000000000000000000000000000000000000000000000000000005f52604160045260245ffd5b62000185826200013d565b810181811067ffffffffffffffff82111715620001a757620001a66200014d565b5b80604052505050565b5f620001bb620000c3565b9050620001c982826200017a565b919050565b5f67ffffffffffffffff821115620001eb57620001ea6200014d565b5b620001f6826200013d565b9050602081019050919050565b5f5b838110156200022257808201518184015260208101905062000205565b5f8484015250505050565b5f620002436200023d84620001ce565b620001b0565b90508281526020810184848401111562000262576200026162000139565b5b6200026f84828562000203565b509392505050565b5f82601f8301126200028e576200028d62000135565b5b8151620002a08482602086016200022d565b91505092915050565b5f805f60608486031215620002c357620002c2620000cc565b5b5f620002d2868287016200011f565b935050602084015167ffffffffffffffff811115620002f657620002f5620000d0565b5b620003048682870162000277565b925050604084015167ffffffffffffffff811115620003285762000327620000d0565b5b620003368682870162000277565b9150509250925092565b5f81519050919050565b7f4e487b71000000000000000000000000000000000000000000000000000000005f52602260045260245ffd5b5f60028204905060018216806200038f57607f821691505b602082108103620003a557620003a46200034a565b5b50919050565b5f819050815f5260205f209050919050565b5f6020601f8301049050919050565b5f82821b905092915050565b5f60088302620004097fffffffffffffffffffffffffffffffffffffffffffffffffffffffffffffffff82620003cc565b620004158683620003cc565b95508019841693508086168417925050509392505050565b5f819050919050565b5f819050919050565b5f6200045f6200045962000453846200042d565b62000436565b6200042d565b9050919050565b5f819050919050565b6200047a836200043f565b62000492620004898262000466565b848454620003d8565b825550505050565b5f90565b620004a86200049a565b620004b58184846200046f565b505050565b5b81811015620004dc57620004d05f826200049e565b600181019050620004bb565b5050565b601f8211156200052b57620004f581620003ab565b6200050084620003bd565b8101602085101562000510578190505b620005286200051f85620003bd565b830182620004ba565b50505b505050565b5f82821c905092915050565b5f6200054d5f198460080262000530565b1980831691505092915050565b5f6200056783836200053c565b9150826002028217905092915050565b620005828262000340565b67ffffffffffffffff8111156200059e576200059d6200014d565b5b620005aa825462000377565b620005b7828285620004e0565b5f60209050601f831160018114620005ed575f8415620005d8578287015190505b620005e485826200055a565b86555062000653565b601f198416620005fd86620003ab565b5f5b828110156200062657848901518255600182019150602085019450602081019050620005ff565b8683101562000646578489015162000642601f8916826200053c565b8355505b6001600288020188555050505b505050505050565b611cd880620006695f395ff3fe608060405234801561000f575f80fd5b50600436106100f3575f3560e01c8063711e6eed11610095578063affc067011610064578063affc06701461027e578063c631b29214610288578063cf09e0d014610292578063f851a440146102b0576100f3565b8063711e6eed146101f15780637284e4161461020f578063a3ec138d1461022d578063a95824b414610260576100f3565b80632e6997fe116100d15780632e6997fe146101615780633477ee2e1461017f578063359af4b2146101b25780634a2a84c5146101d5576100f3565b80630121b93f146100f757806309eef43e146101135780632d35a8a214610143575b5f80fd5b610111600480360381019061010c919061103b565b6102ce565b005b61012d600480360381019061012891906110c0565b61058f565b60405161013a9190611105565b60405180910390f35b61014b6105e5565b604051610158919061112d565b60405180910390f35b6101696105eb565b6040516101769190611309565b60405180910390f35b6101996004803603810190610194919061103b565b6107ae565b6040516101a99493929190611380565b60405180910390f35b6101ba61087f565b6040516101cc969594939291906113ca565b60405180910390f35b6101ef60048036038101906101ea9190611563565b6109e7565b005b6101f9610bf5565b60405161020691906115bd565b60405180910390f35b610217610c81565b60405161022491906115bd565b60405180910390f35b610247600480360381019061024291906110c0565b610d0d565b60405161025794939291906115dd565b60405180910390f35b610268610dd8565b6040516102759190611105565b60405180910390f35b610286610dea565b005b610290610ebf565b005b61029a610f93565b6040516102a7919061112d565b60405180910390f35b6102b8610f99565b6040516102c59190611627565b60405180910390f35b60045f9054906101000a900460ff1661031c576040517f08c379a00000000000000000000000000000000000000000000000000000000081526004016103139061168a565b60405180910390fd5b5f8054906101000a900473ffffffffffffffffffffffffffffffffffffffff1673ffffffffffffffffffffffffffffffffffffffff163373ffffffffffffffffffffffffffffffffffffffff16036103a9576040517f08c379a00000000000000000000000000000000000000000000000000000000081526004016103a0906116f2565b60405180910390fd5b5f60075f3373ffffffffffffffffffffffffffffffffffffffff1673ffffffffffffffffffffffffffffffffffffffff1681526020019081526020015f2090508060010160019054906101000a900460ff161561043b576040517f08c379a00000000000000000000000000000000000000000000000000000000081526004016104329061175a565b60405180910390fd5b5f8211801561044c57506003548211155b61048b576040517f08c379a0000000000000000000000000000000000000000000000000000000008152600401610482906117c2565b60405180910390fd5b60018160010160016101000a81548160ff021916908315150217905550818160020181905550806001015f9054906101000a900460ff16610529576001816001015f6101000a81548160ff0219169083151502179055506040518060400160405280600981526020017f416e6f6e796d6f75730000000000000000000000000000000000000000000000815250815f01908161052791906119da565b505b60065f8381526020019081526020015f206003015f81548092919061054d90611ad6565b91905055507f4d99b957a2bc29a30ebd96a7be8e68fe50a3c701db28a91436490b7d53870ca43383604051610583929190611b1d565b60405180910390a15050565b5f60075f8373ffffffffffffffffffffffffffffffffffffffff1673ffffffffffffffffffffffffffffffffffffffff1681526020019081526020015f2060010160019054906101000a900460ff169050919050565b60035481565b60605f60035467ffffffffffffffff81111561060a5761060961143f565b5b60405190808252806020026020018201604052801561064357816020015b610630610fbc565b8152602001906001900390816106285790505b5090505f600190505b60035481116107a65760065f8281526020019081526020015f206040518060800160405290815f820154815260200160018201805461068a9061180d565b80601f01602080910402602001604051908101604052809291908181526020018280546106b69061180d565b80156107015780601f106106d857610100808354040283529160200191610701565b820191905f5260205f20905b8154815290600101906020018083116106e457829003601f168201915b50505050508152602001600282015f9054906101000a900473ffffffffffffffffffffffffffffffffffffffff1673ffffffffffffffffffffffffffffffffffffffff1673ffffffffffffffffffffffffffffffffffffffff168152602001600382015481525050826001836107779190611b44565b8151811061078857610787611b77565b5b6020026020010181905250808061079e90611ad6565b91505061064c565b508091505090565b6006602052805f5260405f205f91509050805f0154908060010180546107d39061180d565b80601f01602080910402602001604051908101604052809291908181526020018280546107ff9061180d565b801561084a5780601f106108215761010080835404028352916020019161084a565b820191905f5260205f20905b81548152906001019060200180831161082d57829003601f168201915b505050505090806002015f9054906101000a900473ffffffffffffffffffffffffffffffffffffffff16908060030154905084565b6060805f805f80600160025f8054906101000a900473ffffffffffffffffffffffffffffffffffffffff1660035460045f9054906101000a900460ff166005548580546108cb9061180d565b80601f01602080910402602001604051908101604052809291908181526020018280546108f79061180d565b80156109425780601f1061091957610100808354040283529160200191610942565b820191905f5260205f20905b81548152906001019060200180831161092557829003601f168201915b505050505095508480546109559061180d565b80601f01602080910402602001604051908101604052809291908181526020018280546109819061180d565b80156109cc5780601f106109a3576101008083540402835291602001916109cc565b820191905f5260205f20905b8154815290600101906020018083116109af57829003601f168201915b50505050509450955095509550955095509550909192939495565b5f8054906101000a900473ffffffffffffffffffffffffffffffffffffffff1673ffffffffffffffffffffffffffffffffffffffff163373ffffffffffffffffffffffffffffffffffffffff1614610a74576040517f08c379a0000000000000000000000000000000000000000000000000000000008152600401610a6b90611bee565b60405180910390fd5b5f73ffffffffffffffffffffffffffffffffffffffff168173ffffffffffffffffffffffffffffffffffffffff1603610ae2576040517f08c379a0000000000000000000000000000000000000000000000000000000008152600401610ad990611c56565b60405180910390fd5b60035f815480929190610af490611ad6565b9190505550604051806080016040528060035481526020018381526020018273ffffffffffffffffffffffffffffffffffffffff1681526020015f81525060065f60035481526020019081526020015f205f820151815f01556020820151816001019081610b6291906119da565b506040820151816002015f6101000a81548173ffffffffffffffffffffffffffffffffffffffff021916908373ffffffffffffffffffffffffffffffffffffffff160217905550606082015181600301559050507fe83b2a43e7e82d975c8a0a6d2f045153c869e111136a34d1889ab7b598e396a360035483604051610be9929190611c74565b60405180910390a15050565b60018054610c029061180d565b80601f0160208091040260200160405190810160405280929190818152602001828054610c2e9061180d565b8015610c795780601f10610c5057610100808354040283529160200191610c79565b820191905f5260205f20905b815481529060010190602001808311610c5c57829003601f168201915b505050505081565b60028054610c8e9061180d565b80601f0160208091040260200160405190810160405280929190818152602001828054610cba9061180d565b8015610d055780601f10610cdc57610100808354040283529160200191610d05565b820191905f5260205f20905b815481529060010190602001808311610ce857829003601f168201915b505050505081565b6007602052805f5260405f205f91509050805f018054610d2c9061180d565b80601f0160208091040260200160405190810160405280929190818152602001828054610d589061180d565b8015610da35780601f10610d7a57610100808354040283529160200191610da3565b820191905f5260205f20905b815481529060010190602001808311610d8657829003601f168201915b505050505090806001015f9054906101000a900460ff16908060010160019054906101000a900460ff16908060020154905084565b60045f9054906101000a900460ff1681565b5f8054906101000a900473ffffffffffffffffffffffffffffffffffffffff1673ffffffffffffffffffffffffffffffffffffffff163373ffffffffffffffffffffffffffffffffffffffff1614610e77576040517f08c379a0000000000000000000000000000000000000000000000000000000008152600401610e6e90611bee565b60405180910390fd5b600160045f6101000a81548160ff0219169083151502179055507fa737faa632a36c00ccb4220893426e922f9442f1cab67acd8301f88a596d4abc60405160405180910390a1565b5f8054906101000a900473ffffffffffffffffffffffffffffffffffffffff1673ffffffffffffffffffffffffffffffffffffffff163373ffffffffffffffffffffffffffffffffffffffff1614610f4c576040517f08c379a0000000000000000000000000000000000000000000000000000000008152600401610f4390611bee565b60405180910390fd5b5f60045f6101000a81548160ff0219169083151502179055507f66b6cb4a09abc3bf1cacc3c67420258856ffdad0deba9078cbd1658957b5021860405160405180910390a1565b60055481565b5f8054906101000a900473ffffffffffffffffffffffffffffffffffffffff1681565b60405180608001604052805f8152602001606081526020015f73ffffffffffffffffffffffffffffffffffffffff1681526020015f81525090565b5f604051905090565b5f80fd5b5f80fd5b5f819050919050565b61101a81611008565b8114611024575f80fd5b50565b5f8135905061103581611011565b92915050565b5f602082840312156110505761104f611000565b5b5f61105d84828501611027565b91505092915050565b5f73ffffffffffffffffffffffffffffffffffffffff82169050919050565b5f61108f82611066565b9050919050565b61109f81611085565b81146110a9575f80fd5b50565b5f813590506110ba81611096565b92915050565b5f602082840312156110d5576110d4611000565b5b5f6110e2848285016110ac565b91505092915050565b5f8115159050919050565b6110ff816110eb565b82525050565b5f6020820190506111185f8301846110f6565b92915050565b61112781611008565b82525050565b5f6020820190506111405f83018461111e565b92915050565b5f81519050919050565b5f82825260208201905092915050565b5f819050602082019050919050565b61117881611008565b82525050565b5f81519050919050565b5f82825260208201905092915050565b5f5b838110156111b557808201518184015260208101905061119a565b5f8484015250505050565b5f601f19601f8301169050919050565b5f6111da8261117e565b6111e48185611188565b93506111f4818560208601611198565b6111fd816111c0565b840191505092915050565b61121181611085565b82525050565b5f608083015f83015161122c5f86018261116f565b506020830151848203602086015261124482826111d0565b91505060408301516112596040860182611208565b50606083015161126c606086018261116f565b508091505092915050565b5f6112828383611217565b905092915050565b5f602082019050919050565b5f6112a082611146565b6112aa8185611150565b9350836020820285016112bc85611160565b805f5b858110156112f757848403895281516112d88582611277565b94506112e38361128a565b925060208a019950506001810190506112bf565b50829750879550505050505092915050565b5f6020820190508181035f8301526113218184611296565b905092915050565b5f82825260208201905092915050565b5f6113438261117e565b61134d8185611329565b935061135d818560208601611198565b611366816111c0565b840191505092915050565b61137a81611085565b82525050565b5f6080820190506113935f83018761111e565b81810360208301526113a58186611339565b90506113b46040830185611371565b6113c1606083018461111e565b95945050505050565b5f60c0820190508181035f8301526113e28189611339565b905081810360208301526113f68188611339565b90506114056040830187611371565b611412606083018661111e565b61141f60808301856110f6565b61142c60a083018461111e565b979650505050505050565b5f80fd5b5f80fd5b7f4e487b71000000000000000000000000000000000000000000000000000000005f52604160045260245ffd5b611475826111c0565b810181811067ffffffffffffffff821117156114945761149361143f565b5b80604052505050565b5f6114a6610ff7565b90506114b2828261146c565b919050565b5f67ffffffffffffffff8211156114d1576114d061143f565b5b6114da826111c0565b9050602081019050919050565b828183375f83830152505050565b5f611507611502846114b7565b61149d565b9050828152602081018484840111156115235761152261143b565b5b61152e8482856114e7565b509392505050565b5f82601f83011261154a57611549611437565b5b813561155a8482602086016114f5565b91505092915050565b5f806040838503121561157957611578611000565b5b5f83013567ffffffffffffffff81111561159657611595611004565b5b6115a285828601611536565b92505060206115b3858286016110ac565b9150509250929050565b5f6020820190508181035f8301526115d58184611339565b905092915050565b5f6080820190508181035f8301526115f58187611339565b905061160460208301866110f6565b61161160408301856110f6565b61161e606083018461111e565b95945050505050565b5f60208201905061163a5f830184611371565b92915050565b7f42617520637520646120646f6e670000000000000000000000000000000000005f82015250565b5f611674600e83611329565b915061167f82611640565b602082019050919050565b5f6020820190508181035f8301526116a181611668565b9050919050565b7f41646d696e206b686f6e672064756f63207068657020626f20706869657500005f82015250565b5f6116dc601e83611329565b91506116e7826116a8565b602082019050919050565b5f6020820190508181035f830152611709816116d0565b9050919050565b7f42616e20646120626f20706869657520726f69000000000000000000000000005f82015250565b5f611744601383611329565b915061174f82611710565b602082019050919050565b5f6020820190508181035f83015261177181611738565b9050919050565b7f556e67207669656e206b686f6e6720686f70206c6500000000000000000000005f82015250565b5f6117ac601583611329565b91506117b782611778565b602082019050919050565b5f6020820190508181035f8301526117d9816117a0565b9050919050565b7f4e487b71000000000000000000000000000000000000000000000000000000005f52602260045260245ffd5b5f600282049050600182168061182457607f821691505b602082108103611837576118366117e0565b5b50919050565b5f819050815f5260205f209050919050565b5f6020601f8301049050919050565b5f82821b905092915050565b5f600883026118997fffffffffffffffffffffffffffffffffffffffffffffffffffffffffffffffff8261185e565b6118a3868361185e565b95508019841693508086168417925050509392505050565b5f819050919050565b5f6118de6118d96118d484611008565b6118bb565b611008565b9050919050565b5f819050919050565b6118f7836118c4565b61190b611903826118e5565b84845461186a565b825550505050565b5f90565b61191f611913565b61192a8184846118ee565b505050565b5b8181101561194d576119425f82611917565b600181019050611930565b5050565b601f821115611992576119638161183d565b61196c8461184f565b8101602085101561197b578190505b61198f6119878561184f565b83018261192f565b50505b505050565b5f82821c905092915050565b5f6119b25f1984600802611997565b1980831691505092915050565b5f6119ca83836119a3565b9150826002028217905092915050565b6119e38261117e565b67ffffffffffffffff8111156119fc576119fb61143f565b5b611a06825461180d565b611a11828285611951565b5f60209050601f831160018114611a42575f8415611a30578287015190505b611a3a85826119bf565b865550611aa1565b601f198416611a508661183d565b5f5b82811015611a7757848901518255600182019150602085019450602081019050611a52565b86831015611a945784890151611a90601f8916826119a3565b8355505b6001600288020188555050505b505050505050565b7f4e487b71000000000000000000000000000000000000000000000000000000005f52601160045260245ffd5b5f611ae082611008565b91507fffffffffffffffffffffffffffffffffffffffffffffffffffffffffffffffff8203611b1257611b11611aa9565b5b600182019050919050565b5f604082019050611b305f830185611371565b611b3d602083018461111e565b9392505050565b5f611b4e82611008565b9150611b5983611008565b9250828203905081811115611b7157611b70611aa9565b5b92915050565b7f4e487b71000000000000000000000000000000000000000000000000000000005f52603260045260245ffd5b7f4368692061646d696e206d6f692064756f632074687563206869656e000000005f82015250565b5f611bd8601c83611329565b9150611be382611ba4565b602082019050919050565b5f6020820190508181035f830152611c0581611bcc565b9050919050565b7f4469612063686920756e67207669656e206b686f6e6720686f70206c650000005f82015250565b5f611c40601d83611329565b9150611c4b82611c0c565b602082019050919050565b5f6020820190508181035f830152611c6d81611c34565b9050919050565b5f604082019050611c875f83018561111e565b8181036020830152611c998184611339565b9050939250505056fea26469706673582212201020d4ec16bd45b7b65c6aacf9a635fbe4d516a879f93763229b2f3cad8aaa3a64736f6c63430008140033a26469706673582212205ea633005b21c5d1dca2fe70baa5991b86d4fc23183f2ee1396e68c8e764843864736f6c63430008140033",
  "immutableReferences": {},
  "source": "// SPDX-License-Identifier: MIT\r\npragma solidity ^0.8.20;\r\n\r\n// Contract cho mi cuc bu c\r\ncontract Voting {\r\n    struct Candidate {\r\n        uint id;\r\n        string name;\r\n        address candidateAddress;\r\n        uint voteCount;\r\n    }\r\n    \r\n    struct Voter {\r\n        string name;\r\n        bool isRegistered;\r\n        bool hasVoted;\r\n        uint votedCandidateId;\r\n    }\r\n\r\n    address public admin;\r\n    string public votingTitle; // Tn cuc bu c\r\n    string public description; // M t\r\n    uint public candidatesCount;\r\n    bool public votingOpen;\r\n    uint public createdAt;\r\n    \r\n    mapping(uint => Candidate) public candidates;\r\n    mapping(address => Voter) public voters;\r\n    \r\n    event CandidateAdded(uint id, string name);\r\n    event Voted(address voter, uint candidateId);\r\n    event VotingClosed();\r\n    event VotingOpened();\r\n\r\n    modifier onlyAdmin() {\r\n        require(msg.sender == admin, \"Chi admin moi duoc thuc hien\");\r\n        _;\r\n    }\r\n\r\n    constructor(address _admin, string memory _title, string memory _description) {\r\n        admin = _admin;\r\n        votingTitle = _title;\r\n        description = _description;\r\n        votingOpen = true;\r\n        createdAt = block.timestamp;\r\n    }\r\n\r\n    function addCandidate(string memory _name, address _candidateAddress) public onlyAdmin {\r\n        require(_candidateAddress != address(0), \"Dia chi ung vien khong hop le\");\r\n        candidatesCount++;\r\n        candidates[candidatesCount] = Candidate(candidatesCount, _name, _candidateAddress, 0);\r\n        emit CandidateAdded(candidatesCount, _name);\r\n    }\r\n\r\n    function vote(uint _candidateId) public {\r\n        require(votingOpen, \"Bau cu da dong\");\r\n        require(msg.sender != admin, \"Admin khong duoc phep bo phieu\");\r\n        \r\n        Voter storage sender = voters[msg.sender];\r\n        require(!sender.hasVoted, \"Ban da bo phieu roi\");\r\n        require(_candidateId > 0 && _candidateId <= candidatesCount, \"Ung vien khong hop le\");\r\n\r\n        sender.hasVoted = true;\r\n        sender.votedCandidateId = _candidateId;\r\n        \r\n        if (!sender.isRegistered) {\r\n            sender.isRegistered = true;\r\n            sender.name = \"Anonymous\";\r\n        }\r\n        \r\n        candidates[_candidateId].voteCount++;\r\n        emit Voted(msg.sender, _candidateId);\r\n    }\r\n\r\n    function getAllCandidates() public view returns (Candidate[] memory) {\r\n        Candidate[] memory list = new Candidate[](candidatesCount);\r\n        for (uint i = 1; i <= candidatesCount; i++) {\r\n            list[i - 1] = candidates[i];\r\n        }\r\n        return list;\r\n    }\r\n\r\n    function closeVoting() public onlyAdmin {\r\n        votingOpen = false;\r\n        emit VotingClosed();\r\n    }\r\n    \r\n    function openVoting() public onlyAdmin {\r\n        votingOpen = true;\r\n        emit VotingOpened();\r\n    }\r\n\r\n    function hasVoted(address _voterAddress) public view returns (bool) {\r\n        return voters[_voterAddress].hasVoted;\r\n    }\r\n\r\n    function getVotingInfo() public view returns (\r\n        string memory title,\r\n        string memory desc,\r\n        address adminAddr,\r\n        uint candidateCount,\r\n        bool isOpen,\r\n        uint created\r\n    ) {\r\n        return (votingTitle, description, admin, candidatesCount, votingOpen, createdAt);\r\n    }\r\n}\r\n\r\n// Factory Contract - Qun l tt c cuc bu c\r\ncontract VotingFactory {\r\n    address[] public votings; // Danh sch tt c cuc bu c\r\n    mapping(address => address[]) public userVotings; // Cuc bu c ca mi user\r\n    \r\n    event VotingCreated(address votingAddress, address admin, string title);\r\n\r\n    // To cuc bu c mi\r\n    function createVoting(string memory _title, string memory _description) public returns (address) {\r\n        Voting newVoting = new Voting(msg.sender, _title, _description);\r\n        address votingAddress = address(newVoting);\r\n        \r\n        votings.push(votingAddress);\r\n        userVotings[msg.sender].push(votingAddress);\r\n        \r\n        emit VotingCreated(votingAddress, msg.sender, _title);\r\n        return votingAddress;\r\n    }\r\n\r\n    // Ly tt c cuc bu c\r\n    function getAllVotings() public view returns (address[] memory) {\r\n        return votings;\r\n    }\r\n\r\n    // Ly s lng cuc bu c\r\n    function getVotingsCount() public view returns (uint) {\r\n        return votings.length;\r\n    }\r\n\r\n    // Ly cuc bu c ca user\r\n    function getMyVotings() public view returns (address[] memory) {\r\n        return userVotings[msg.sender];\r\n    }\r\n}",
  "sourcePath": "D:\\Code\\voting\\backend\\contracts\\VotingFactory.sol",
  "compiler": {
    "name": "solc",
    "version": "0.8.20+commit.a1b79de6.Emscripten.clang"
  },
  "schemaVersion": "3.4.16",
  "updatedAt": "2025-11-20T14:03:57.888Z",
  "devdoc": {
    "kind": "dev",
    "methods": {},
    "version": 1
  },
  "userdoc": {
    "kind": "user",
    "methods": {},
    "version": 1
  }
}